:200000000C94F6000C941E010C941E010C941E010C941E010C941E010C941E010C941E0111
:200020000C941E010C941E010C941E010C941E010C941E010C941E010C941E010C941E01C8
:200040000C94E5020C941E010C9484080C945E080C941E010C941E010C941E010C941E012C
:200060000C9410040C941E01656E636F64657273636F756E7400636F6E73006675656C0032
:2000800074656D7000626F6F73740073706565646F0074616368006D637574797065006CF0
:2000A0006973740000D57FAAFE2B815429FC5683D702A87D52872DF8AC79D3067BAE04D1FE
:2000C0008550FA2FA471DB0E5A8F25F08D58F22773A60CD9F623895C08DD77A2DF0AA07530
:2000E00021F45E8B9D48E23763B61CC9B461CB1E4A9F35E0CF1AB06531E44E9BE633994C10
:2001000018CD67B239EC4693C712B86D10C56FBAEE3B91446BBE14C19540EA3F42973DE8EF
:20012000BC69C316EF3A904511C46EBBC613B96C38ED4792BD68C21743963CE99441EB3ECF
:200140006ABF15C04B9E34E1B560CA1F62B71DC89C49E33619CC66B3E732984D30E54F9AAF
:20016000CE1BB16472A70DD88C59F3265B8E24F1A570DA0F20F55F8ADE0BA17409DC76A38F
:20018000F722885DD603A97C28FD5782FF2A805501D47EAB8451FB2E7AAF05D0AD78D2076F
:2001A00053862CF900000000250028002B0004040404040404040202020202020303030391
:2001C00003030102040810204080010204081020010204081020000000080002010000038E
:2001E000040700000000000000006C0F11241FBECFEFD8E0DEBFCDBF11E0A0E0B1E0ECEBEF
:20020000F4E202C005900D92A83BB107D9F724E0A8EBB1E001C01D92A034B207E1F710E0BA
:20022000C6EFD0E004C02197FE010E94FA0FC53FD107C9F70E94CD0B0C945C120C9400006F
:20024000FC01918D228D892F90E0805C9F4F821B91098F739927089580E090E0892B29F0AF
:200260000E94B00781110C94000008953FB7F8948091040290910502A0910602B091070212
:2002800026B5A89B05C02F3F19F00196A11DB11D3FBFBA2FA92F982F8827820F911DA11DAF
:2002A000B11DBC01CD0142E0660F771F881F991F4A95D1F7089585ED8093BC008091BC0007
:2002C00084FDFCCF1092550208954091DA01262F30E0240F311D21323105DCF42091550249
:2002E0002430C9F4FC0180E090E0861758F43091DA012191DC01A854BE4FA30FB11D2C93C4
:200300000196F3CF8091DA01680F6093DA0180E0089581E0089582E008950895E0912E021B
:2003200080912D02E81730F4F0E0E35FFD4F808190E008958FEF9FEF089590912E028091E3
:200340002D02981750F4E92FF0E0E35FFD4F208130E09F5F90932E0202C02FEF3FEFC9012B
:20036000089580912D0290E020912E02821B91090895CF92DF92EF92FF920F931F93CF93E1
:20038000DF937C01262F972F8A0180915602882391F0C62FD72F6E01C40ED51ECC15DD0541
:2003A00071F06991D701ED91FC910190F081E02DC7010995F3CF642F822F0E946501C801B3
:2003C000DF91CF911F910F91FF90EF90DF90CF900895CF93DF931F92CDB7DEB76983209149
:2003E00056022223D1F020917902203240F021E030E0FC013383228380E090E015C08091D2
:200400005702E82FF0E0E85AFD4F998190838F5F809357028093790205C061E0CE0101968D
:200420000E94650181E090E00F90DF91CF910895FC01EE52FF4F8081880F880F0895EF92FF
:20044000FF920F931F93CF93DF938C01DC01ED91FC910190F081E02D0995C0E0D0E0E82E5B
:20046000F12CCE15DF0564F4D801ED91FC910680F781E02D40E06C2FC80109952196F1CFB8
:20048000DF91CF911F910F91FF90EF900895CF93DF93EC0162E371E00E942308CE01DF912E
:2004A000CF910895FC01848DDF01A80FB11DA35ABF4F2C91848D90E001968F739927848F17
:2004C000A689B7892C93A089B1898C9180648C93938D848D981306C00288F389E02D8081B5
:2004E0008F7D808308958F929F92AF92BF92CF92DF92EF92FF926B017C010E9436014B017A
:200500005C01C114D104E104F104F1F00E943601DC01CB0188199909AA09BB09883E934044
:20052000A105B10570F321E0C21AD108E108F10888EE880E83E0981EA11CB11CC114D1040B
:20054000E104F10419F7DDCFFF90EF90DF90CF90BF90AF909F908F9008952FB7F89460914D
:2005600000027091010280910202909103022FBF08950F931F930E94AD020091F6031091DF
:20058000F7032091F8033091F903DC01CB01801B910BA20BB30B0091FA031091FB032091CF
:2005A000FC033091FD03081719072A073B0750F40E94AD026093F6037093F7038093F8033D
:2005C0009093F9031F910F9108951F920F920FB60F9211242F933F938F939F93AF93BF93A6
:2005E0008091000290910102A0910202B09103023091FF0123E0230F2D3720F40196A11D86
:20060000B11D05C026E8230F0296A11DB11D2093FF018093000290930102A0930202B0937B
:2006200003028091040290910502A0910602B09107020196A11DB11D80930402909305028D
:20064000A0930602B0930702BF91AF919F918F913F912F910F900FBE0F901F901895CF93DA
:20066000DF931F92CDB7DEB7FC01808191E09093560280937802109257021092790287E147
:2006800093E049830E94E9014981642F87E193E00E94E90181E00F90DF91CF910C94EF0864
:2006A0000F931F93CF93DF9300D0CDB7DEB7152F032FFC01808191E090935602809378023C
:2006C0001092570210927902F4E06F9FB00111246A5F7F4F87E193E02A8349830E94E901C3
:2006E0004981842F912F0E944C09812F90E00E944C092A81822F902F0E944C09802F90E07E
:200700000E944C0981E00F900F90DF91CF911F910F910C94EF08EF92FF921F93CF93DF93F4
:20072000142F70E041111DC09B01235A3F4F220F331FEC01C20FD31F0990D881C02D8B8132
:200740009C8120E030E040E050E06981CB960E9450038B819C8120E030E040E050E06A8168
:200760002AC0660F771F860F971FEC01C654DF4FE880F980F7018381948120E030E040E0E2
:2007800050E06281CB960E945003F7018381948120E030E040E050E16181CB960E94500346
:2007A000E881F98180E1189F900111248381948140E050E06081CB96DF91CF911F91FF90BE
:2007C000EF900C945003CF93DF93FC01AC014D5F5F4FEC0128964B96DA0114961C921E9260
:2007E000139718829E0123503109D9011C9221503109D9011C92DA011C924A5F5F4F269612
:200800004817590749F717A212A616A215A217AA12AE16AA15AA608363AFDF91CF91089597
:200820001F920F920FB60F9211242F933F934F935F936F937F938F939F93AF93BF93EF93E5
:20084000FF938091B900887F803609F49CC068F5883209F45BC090F4803109F454C038F485
:20086000882309F4F6C0883009F44DC0F6C0883109F44CC0803209F45DC0EFC0803409F4B4
:2008800068C048F4803309F455C0883309F0E5C080935302D8C0803509F44FC0883509F45B
:2008A0005DC0883409F0D9C0D6C0883909F4C7C0A8F4883709F467C038F4883609F463C069
:2008C000803709F460C0C9C0883809F4B8C0803909F45FC0803809F0C0C05BC0803B09F4AD
:2008E00086C038F4803A09F466C0883A09F47FC0B4C0803C09F4A7C0883C09F4A4C0883B2F
:2009000009F48AC0AAC08091300210C09091520280915102981770F5E091520281E08E0F63
:2009200080935202F0E0EF5CFD4F80818093BB0085EC86C0809353028EC0E091520281E087
:200940008E0F809352028091BB00F0E0EF5CFD4F808390915202809151026EC0E091520291
:2009600081E08E0F809352028091BB00F0E0EF5CFD4F80838091540281116DC081E0809342
:200980002F0284EA61C083E0809355021092FE01CFCF8091FE01803208F051C0E091FE0150
:2009A00081E08E0F8093FE018091BB00F0E0E252FE4F8083BDCF85EC8093BC001092550242
:2009C0008091FE01803230F4E091FE01F0E0E252FE4F10826091FE0170E0E091DC01F091CF
:2009E000DD018EED91E009951092FE0136C084E0809355021092DB011092DA01E091D801E5
:200A0000F091D90109958091DA01811105C081E08093DA011092B801E091DB0181E08E0FA5
:200A20008093DB01F0E0E854FE4F80818093BB009091DB018091DA01981708F479CF85E856
:200A40008093BC000AC085EC8093BC001092550204C0109253020E945B01FF91EF91BF91AB
:200A6000AF919F918F917F916F915F914F913F912F910F900FBE0F901F9018951092550216
:200A800081E08093540210922F0282E10E94510983E10E945109E9EBF0E080818E7F808345
:200AA00080818D7F808388E48093B80085E48093BC0008950F931F93CF93DF938C01FC0168
:200AC00001900020E9F73197EF01C81BD90B86E090E00E94C60ACE0101960E94C60AC8011D
:200AE0000E94420A8AE090E00E94C60A80E290E00E94C60A8AE792E0DF91CF911F910F9175
:200B00000C9401080F931F93CF93DF938C01FC0101900020E9F73197EF01C81BD90B86E004
:200B200090E00E94C60ACE010E94C60AC8010E94420A80E290E00E94C60A8AE792E0DF9144
:200B4000CF911F910F910C940108CF93DF931F92CDB7DEB7682F88E090E069830E94C60AD1
:200B600069818AE792E00E94BA078AE792E00F90DF91CF910C940108CF92DF92EF92FF9266
:200B8000CF93DF93EC010E94AD026B017C01E881F981309711F081E009958AE792E00E942B
:200BA000B60697FF0FC00E94AD02AB01BC014C195D096E097F09443651056105710538F3B9
:200BC0008FEF9FEFDF91CF91FF90EF90DF90CF900895CF93DF93CDB7DEB7EC970FB6F894FF
:200BE000DEBF0FBECDBF60E07BE480E090E00E94540A81E08093F50360E6CE0101960E94D6
:200C0000E3038CE3FE013196A9E2B3E001900D928A95E1F789E293E00E949709809131030F
:200C2000811111C01092310389E293E09093300380932F0388E080932C038AE080932D03AB
:200C400089E080932E038CE293E09093DE038093DD0380913703811112C081E080933703B2
:200C600089E293E090933603809335038DE0809332038BE0809333038CE08093340382E36B
:200C800093E09093E0038093DF0380913D03811111C082E080933D0329E233E030933C035D
:200CA00020933B038093380384E08093390383E080933A0388E393E09093E2038093E103B2
:200CC00080914303811112C083E08093430389E293E0909342038093410387E080933E0345
:200CE00085E080933F0386E0809340038EE393E09093E4038093E30389EB92E090933B044F
:200D000080933A04EC960FB6F894DEBF0FBECDBFDF91CF910895CF92DF92EF92FF920F93C6
:200D20001F93CF93DF936C017A018B01C0E0D0E0CE15DF0589F0D8016D918D01D601ED916F
:200D4000FC910190F081E02DC6010995892B11F47E0102C02196ECCFC701DF91CF911F91DE
:200D60000F91FF90EF90DF90CF900895FC01918D828D981761F0828DDF01A80FB11D5D96C9
:200D80008C91928D9F5F9F73928F90E008958FEF9FEF0895FC01918D828D981731F0828D27
:200DA000E80FF11D858D90E008958FEF9FEF0895CF93DF93EC0188819981009711F00E9448
:200DC0009510198218821D821C821B821A82DF91CF910895FC01808191810C9495100E945F
:200DE000F711FC0124813581FB01448155812417350721F5FC0180819181FB016081718190
:200E0000009719F061157105A1F46115710549F0232BB1F0FB01808190E09195819591095A
:200E20000AC0009769F0232B59F0FC01808190E002C00E94051221E0892B19F020E001C0F9
:200E400021E0822F08950F931F93CF93DF93EC0188819981009729F02A813B812617370779
:200E600088F48B016F5F7F4F0E942D11009761F0998388831B830A832C813D81232B11F4F6
:200E8000FC01108281E001C080E0DF91CF911F910F910895EF92FF920F931F93CF93DF934A
:200EA000FC01248135816115710511F480E019C041155105A9F07B01EC018A01020F131F34
:200EC000B8010E942307882389F3288139818C819D81B701820F931F0E940E121D830C83EC
:200EE00081E0DF91CF911F910F91FF90EF900895EF92FF920F931F93CF93DF93EC01198204
:200F000018821B821A821D821C826115710509F18B01CB010E941C127C01BC01CE010E9408
:200F20002307811109C0CE01DF91CF911F910F91FF90EF900C94D806FD82EC82B801888102
:200F40009981DF91CF911F910F91FF90EF900C941512DF91CF911F910F91FF90EF900895B7
:200F60008AE792E00E94200121E0892B09F420E0822F0895EF92FF920F931F93CF93DF9391
:200F8000EC0181E0888F9B8D8C8D981305C0E889F989808185FD24C0F62E0B8D10E00F5FC7
:200FA0001F4F0F731127E02E8C8DE8120CC00FB607FCFACFE889F989808185FFF5CFCE0180
:200FC0000E945202F1CF8B8DFE01E80FF11DE35AFF4FF0820B8FEA89FB898081806207C007
:200FE000EE89FF896083E889F98980818064808381E090E0DF91CF911F910F91FF90EF9035
:201000000895CF93DF93EC01888D8823C9F0EA89FB89808185FD05C0A889B9898C9186FDA7
:201020000FC00FB607FCF5CF808185FFF2CFA889B9898C9185FFEDCFCE010E945202E7CFC4
:20104000DF91CF910895EF92FF920F931F93CF93DF93EC01198218821B821A821D821C8251
:201060006115710521F18B01FB0101900020E9F731977F01E61AF70AB7010E9423078111FA
:2010800009C0CE01DF91CF911F910F91FF90EF900C94D806FD82EC82B80188819981DF91D3
:2010A000CF911F910F91FF90EF900C940E12DF91CF911F910F91FF90EF9008951F920F9295
:2010C0000FB60F9211242F933F934F935F936F937F938F939F93AF93BF93EF93FF938AE78C
:2010E00092E00E945202FF91EF91BF91AF919F918F917F916F915F914F913F912F910F9089
:201100000FBE0F901F9018951F920F920FB60F9211242F938F939F93EF93FF93E0918A02F3
:20112000F0918B028081E0919002F091910282FD12C09081809193028F5F8F73209194024A
:20114000821751F0E0919302F0E0E658FD4F958F8093930201C08081FF91EF919F918F9167
:201160002F910F900FBE0F901F901895909139049032A1F02091380430E0290F311D2032C2
:20118000310510F0205231093327F901E250FC4F828F9F5F9093390481E0089580E0089532
:2011A000209139042223B9F0E0913804F0E0E250FC4F228DFC012083809138048F5F8093BC
:2011C000380490913904915090933904803229F41092380402C080E0089581E00895382F63
:2011E0002091790290917802213208F049C0809155028111FCCF42E04093550230935402AA
:201200003FEF309353021092520220935102A8E5B2E041E352E0FA013E2F341B321718F40B
:201220003D913193F9CF1092300220913002990F922B9093300290912F02913061F41092D9
:201240002F02909130029093BB009091BC0093FDF8CF95EC01C095EE9093BC0090915502DC
:201260009230E1F3909153029F3F79F080915302803241F080915302803331F084E005C06F
:2012800081E003C082E001C083E01092570210927902109256020895682F87E193E00C94E3
:2012A000E90190E0FC01EA52FE4F2491FC01EE53FE4F3491FC01E255FE4FE491EE23B1F1A0
:2012C000222339F1233091F038F42130A9F0223001F584B58F7D12C0273091F02830A1F095
:2012E0002430B9F4809180008F7D03C0809180008F77809380000DC084B58F7784BD09C04D
:201300008091B0008F7703C08091B0008F7D8093B000F0E0EE0FFF1FEC55FE4FA591B491BF
:201320008FB7F894EC913E2B3C938FBF08950F931F93CF93DF938C0110922E0210922D02E3
:2013400010925702109279020E943E05E801EB960E943E0540E060E0CE010E942F0380E4DA
:2013600096E0F8019283818383AD91E09093560280937802109257021092790260E087E17C
:2013800093E00E94E90181E00E94EF08F80183AD909155029111FCCF91E090935502909338
:2013A00054022FEF2093530210925202109251029093300290913002880F892B809330028E
:2013C00080912F02813061F410922F02809130028093BB008091BC0083FDF8CF85EC01C09B
:2013E00085EE8093BC00809155028130E1F380915202811103C08091520201C081E0A1E3F9
:20140000B2E02DE032E0F9019E2F921B981718F49D919193F9CF10922E0280932D0287E156
:2014200093E00E949D01182F482F4F76406160E0CE010E942F0343E06EEFCE010E942F03CF
:20144000412F60E0CE010E942F0365E070E080E090E00E947302412F416A60E0CE010E94F1
:201460002F0310E020E030E040E050E0612FCE010E9450031F5F1031A9F7DF91CF911F91B7
:201480000F910895009769F0FC0101900020E9F73197AF01481B590BBC018AE792E00C9412
:2014A0008B0680E090E00895CF92DF92EF92FF926B017C01E0918A02F0918B0282E08083F1
:2014C000C11481EED806E104F104B1F060E079E08DE390E0A70196010E94D80FDA01C90189
:2014E0000197A109B109B695A795979587959C01211580E13807B8F0E0918A02F0918B02FB
:20150000108260E874E88EE190E0A70196010E94D80FDA01C9010197A109B109B695A795C6
:20152000979587959C01E0918602F09187023083E0918802F0918902208310929202E091BF
:201540008E02F0918F0286E08083E0918C02F0918D02808180618083E0918C02F0918D027D
:20156000808188608083E0918C02F0918D02808180688083E0918C02F0918D0280818F7D68
:201580008083FF90EF90DF90CF900895682F8AE792E00C94BA07CF92DF92EF92FF920F936E
:2015A0001F93CF93DF9300D0CDB7DEB78AE792E00E942001181619060CF0A6C08AE394E086
:2015C0000E94BC05019791F78AE394E00E94BC05019709F099C08AE394E00E94BC056C01A9
:2015E00097FD2CC08AE394E00E94BC058C010197809730F58EEFE82E83E0F82E20E0C701E2
:201600008E5F9340801791077CF4211139C08AE394E02A830E94BC05F70181937F012A8118
:2016200097FFEDCF25E0EBCF21112AC08AE394E00E94BC0597FF06C023E022C021E020C017
:2016400022E01EC0F601EC55FF4FE49198012E27F901EC55FF4FE491AEEFB3E09D012E5F68
:201660003340201731073CF42D91E227F0E0EC55FF4FE491F3CFF0E08E179F07C9F024E023
:201680006091160484E090E02A8369830E94C60A69818AE792E00E94BA072A81622F8AE783
:2016A00092E00E94BA078AE792E00E9401087ECF80911604909117048038910514F5019625
:2016C000C816D90621F0FFEFCF16D104A1F49EEFE92E93E0F92EC7018E5F9340801791070A
:2016E00034F4F70181917F010E94B608F4CFD0921704C092160483E090E00E94C60A6C2D4E
:20170000CECF80E090E0DCCF0F900F90DF91CF911F910F91FF90EF90DF90CF900895CF9279
:20172000DF92EF92FF92CF93DF931F92CDB7DEB70E94AD026B017C01E0913A04F0913B04DF
:20174000309711F080E0099580913904882341F01982CE0101960E94D008898190E015C0CF
:201760000E94CB0A0E94AD02DC01CB018C199D09AE09BF0980399140A105B105E8F280915D
:2017800039048111D9CF8FEF9FEF0F90DF91CF91FF90EF90DF90CF900895CF93DF93CDB786
:2017A000DEB72C970FB6F894DEBF0FBECDBF789484B5826084BD84B5816084BD85B58260AB
:2017C00085BD85B5816085BD80916E00816080936E0010928100809181008260809381005E
:2017E00080918100816080938100809180008160809380008091B10084608093B100809162
:20180000B00081608093B00080917A00846080937A0080917A00826080937A0080917A00F3
:20182000816080937A0080917A00806880937A001092C1000E94E9050E94AD02009125033D
:20184000109126032091270330912803DC01CB01801B910BA20BB30B893E9340A105B105B6
:2018600028F0012B022B032B09F024C3E0913A04F0913B04309711F080E009958091390466
:20188000811102C00E94CB0A80913904882309F40CC30E948F0B039709F007C30E94AD02CE
:2018A0006093090270930A0280930B0290930C020E948F0B80930802813351F40E948F0B3C
:2018C0006AE070E080E090E00E9473028AE6B8C0883309F0AAC00E948F0B8C0168EC70E014
:2018E00080E090E00E9473020130110529F46CE271E080E090E007C00230110539F460EBA7
:2019000074E080E090E00E94540A1EC00330110539F460E679E080E090E00E94540A1EC002
:201920000430110539F460EC72E180E090E00E94540A1EC00530110539F460E875E280E06C
:2019400090E00E94540A28C00630110539F460E478E380E090E00E94540A28C00730110512
:2019600039F460E07BE480E090E00E94540A28C00830110539F460E870E780E090E00E9457
:20198000540A28C00930110539F460E076E980E090E00E94540A26C00A30110539F460E073
:2019A00071EE80E090E00E94540A24C00B30110539F460E072EC81E090E00E94540A22C045
:2019C0000C30110539F460E074E883E090E00E94540A20C00D30110529F460E970ED83E0C0
:2019E00090E020C00E30110529F460E472E48FE090E018C00F30110529F460E874E88EE150
:201A000090E010C00031110529F460E47DE083E090E008C00131110509F047C260E271EAFF
:201A200087E090E00E94540A40C2823311F480E007C0982F977F9234D1F3813441F483E038
:201A40000E94A5058AE792E00E9401082EC28E3419F48BE491E004C0893449F48DE591E06C
:201A60000E9482058BE591E00E948205EBCF803309F56AE070E080E090E00E94730282E8DD
:201A800091E00E94820584E891E00E94820586E891E00E94820588E891E00E9482058AE822
:201AA00091E00E9482058CE891E00E9482058EE891E0D6CF833309F4F8C1863509F094C07E
:201AC0000E948F0B833409F05AC08FEF0E94A50584E00E94A50562E371E0CE0101960E94E8
:201AE000230818861F821A8619861C861B8609811A8101151105A9F0ED80FE80B701CE019E
:201B000007960E942307811105C0CE0107960E94D80607C0FC86EB86B8018F8198850E94D7
:201B20000E1241E050E060E971E0CE0107960E944A07882309F4CBC10B851C8586E090E000
:201B40000E94C60AC8010E94C60A4B855C856F8178858AE792E00E948B0680E290E00E94B0
:201B6000C60A8AE792E00E940108CE0107960E94EA06CE0101960E94EA068AE0AEC0833581
:201B800009F093C1E0912303F09124030190F081E02D83E293E0099500E010E0E82EF12C31
:201BA0000E151F05B4F40E948F0B8F3F2FEF920709F47BC1E0912303F09124030680F781FF
:201BC000E02D482F602F83E293E009950F5F1F4FE7CF0E94AD02609325037093260380933F
:201BE00027039093280361C1833509F45EC1843309F41DCF863309F46FC0823509F46CC012
:201C00008D3409F452C1873419F40E948F0B4DC195EB980F923008F448C1803509F060C025
:201C20006CE571E0CE0107960E9423080E948F0B97FD0FC08A30910561F089831A8241E0C0
:201C400050E0BE016F5F7F4FCE0107960E944A07EDCF62E971E0CE0101960E9423084B853F
:201C60005C856F817885CE0101960E944A07811104C0CE0101960E94D80687E090E00E9488
:201C8000C60A6D817E816F5F7F4F8AE792E00E94BA074D815E8169817A818AE792E00E948E
:201CA0008B06E0917A02F0917B020190F081E02D6AE08AE792E0099580E290E00E94C60A8A
:201CC0008AE792E00E940108CE0101960E94EA06CE0107960E94EA0685E10E94A505E5C029
:201CE000883509F0E2C06CE571E0CE0107960E9423080E948F0B97FD12C08032910579F05E
:201D00008A30910561F089831A8241E050E0BE016F5F7F4FCE0107960E944A07EACF6FE95E
:201D200070E0CE0101960E947807BE016F5F7F4FCE0107960E94F106182FCE0101960E941D
:201D4000EA06112351F086EA91E00E945A058EEA91E00E945A058AE01BC067E970E0CE019E
:201D600001960E947807BE016F5F7F4FCE0107960E94F106182FCE0101960E94EA061123D8
:201D800071F08EE10E94A50585E90E94A5058FE00E94A5058AE792E00E94010882C062E997
:201DA00070E0CE0101960E947807BE016F5F7F4FCE0107960E94F106182FCE0101960E949D
:201DC000EA0611116EC06BE870E0CE0101960E947807BE016F5F7F4FCE0107960E94F10639
:201DE000182FCE0101960E94EA0611115AC065E870E0CE0101960E947807BE016F5F7F4FE9
:201E0000CE0107960E94F106182FCE0101960E94EA06111146C060E870E0CE0101960E94B6
:201E20007807BE016F5F7F4FCE0107960E94F106182FCE0101960E94EA06111132C06BE71E
:201E400070E0CE0101960E947807BE016F5F7F4FCE0107960E94F106182FCE0101960E94FC
:201E6000EA0611111EC066E770E0CE0101960E947807BE016F5F7F4FCE0107960E94F106EE
:201E8000182FCE0101960E94EA0611110AC068E670E0CE0101960E947807CE0101960E94EA
:201EA000EA06CE0107960E94EA060E94AD020E942C01C2CC83E293E00E941F021092250321
:201EC000109226031092270310922803CFCCCE0107960E94D80630CEEAE7F2E0138212824D
:201EE00088EE93E0A0E0B0E084839583A683B7832AE031E03183208325EC30E0358724876D
:201F000024EC30E03787268720EC30E0318B208B21EC30E0338B228B22EC30E0358B248B9E
:201F200026EC30E0378B268B118E128E138E148EE7E1F3E01382128284839583A683B78344
:201F40008AE191E091838083EEEFF3E08FEF90E0918F808F12AE13AE15AE14AEE6EFF3E013
:201F600010821182128213828AE090E0A0E0B0E084839583A683B783E3E2F3E012821382E6
:201F8000148215828AE291E09183808360E689E293E00E94E30360E685E693E00E94E303C8
:201FA00060E681EA93E00E94E3031092F5030895A1E21A2EAA1BBB1BFD010DC0AA1FBB1F6A
:201FC000EE1FFF1FA217B307E407F50720F0A21BB30BE40BF50B661F771F881F991F1A94DA
:201FE00069F760957095809590959B01AC01BD01CF010895EE0FFF1F0590F491E02D0994FA
:20200000CF93DF938230910510F482E090E0E0913E04F0913F0420E030E0C0E0D0E0309730
:2020200011F14081518148175907C0F04817590761F482819381209719F09B838A832BC09B
:2020400090933F0480933E0426C02115310519F04217530718F49A01BE01DF01EF010280FF
:20206000F381E02DDCCF2115310509F1281B390B2430310590F412968D919C911397611526
:20208000710521F0FB019383828304C090933F0480933E04FD01329644C0FD01E20FF31F58
:2020A00081939193225031092D933C933AC020913C0430913D04232B41F4209102013091C8
:2020C000030130933D0420933C0420910001309101012115310541F42DB73EB74091040140
:2020E00050910501241B350BE0913C04F0913D04E217F307A0F42E1B3F0B2817390778F006
:20210000AC014E5F5F4F2417350748F04E0F5F1F50933D0440933C048193919302C0E0E03C
:20212000F0E0CF01DF91CF9108950F931F93CF93DF93009709F48CC0FC013297138212829B
:2021400000913E0410913F040115110581F420813181820F931F20913C0430913D0428175F
:20216000390779F5F0933D04E0933C0471C0D80140E050E0AE17BF0750F412962D913C91DE
:202180001397AD012115310509F1D901F3CF9D01DA013383228360817181860F971F82175A
:2021A000930769F4EC0128813981260F371F2E5F3F4F318320838A819B8193838283452B29
:2021C00029F4F0933F04E0933E0442C01396FC93EE931297ED01499159919E01240F351F2B
:2021E000E217F30771F480819181840F951F029611969C938E938281938113969C938E938E
:202200001297E0E0F0E0D80112968D919C911397009719F0F8018C01F6CF8D919C91980140
:202220002E5F3F4F820F931F20913C0430913D042817390769F4309729F410923F04109206
:202240003E0402C01382128210933D0400933C04DF91CF911F910F910895A0E0B0E0E3E307
:20226000F1E10C942912EC01009721F4CB010E940010B8C0FC01E60FF71F9C0122503109D1
:20228000E217F30708F4ACC0D9010D911C91119706171707B0F00530110508F49FC0C801CC
:2022A00004978617970708F499C002501109061B170B019311936D937C93CF010E949510E6
:2022C0008DC05B01A01AB10A4C01800E911EA0913E04B0913F0440E050E0E12CF12C10973E
:2022E00009F44AC0A815B905D1F56D907C901197630182E0C80ED11CCA14DB0480F1A3018A
:202300004A195B096A0182E0C80ED11C1296BC9012971396AC91B5E0CB16D10440F0B28234
:20232000A38351834083D9016D937C930AC00E5F1F4FC301800F911FF90191838083EB2D26
:20234000FA2FE114F10431F0D7011396FC93EE93129744C0F0933F04E0933E043FC08D9173
:202360009C9111974817590708F4AC017D0112960D90BC91A02DB3CF80913C0490913D040E
:2023800088159905E1F446175707C8F48091000190910101009741F48DB79EB74091040146
:2023A00050910501841B950BE817F907C8F4F0933D04E0933C04F901718360830FC0CB0159
:2023C0000E9400107C01009759F0A801BE010E94FC11CE010E949510C70104C0CE0102C0A4
:2023E00080E090E0CDB7DEB7EEE00C94451281E090E0F8940C945C12FB01DC0102C0019098
:202400000D9241505040D8F70895FB01DC018D91019080190110D9F3990B0895FB01DC0178
:2024200001900D920020E1F70895FB01DC0105900D920020E1F70895FC0105900020E9F7A3
:20244000809590958E0F9F1F08952F923F924F925F926F927F928F929F92AF92BF92CF928F
:20246000DF92EF92FF920F931F93CF93DF93CDB7DEB7CA1BDB0B0FB6F894DEBF0FBECDBF86
:2024800009942A88398848885F846E847D848C849B84AA84B984C884DF80EE80FD800C81C9
:2024A0001B81AA81B981CE0FD11D0FB6F894DEBF0FBECDBFED010895F894FFCF00004004E0
:2024C000800000000000BA078B062001B606CA06010800000000E901B901B1019D018E01F1
:2024E0008D0100000000180247021F028B034164616672756974204D6F746F722053686997
:20250000656C6420563200526564696F6E2057696E642053696D000A00633362636233394F
:20252000312D373630632D346565652D383963622D32333232343666636537646300470077
:202540004E0049004A005000580056003B004D657373616765207265636569766564203ADB
:2025600020006D637574797065006B656570616C69766500FFFFFFFFFFFFFFFFFFFFFFFF8A
:20258000FFFFFFFFFFFFFFFFFFFFFFFFFFFFFFFFFFFFFFFFFFFFFFFFFFFFFFFFFFFFFFFF5B
:2025A000FFFFFFFFFFFFFFFFFFFFFFFFFFFFFFFFFFFFFFFFFFFFFFFFFFFFFFFFFFFFFFFF3B
:2025C000FFFFFFFFFFFFFFFFFFFFFFFFFFFFFFFFFFFFFFFFFFFFFFFFFFFFFFFFFFFFFFFF1B
:2025E000FFFFFFFFFFFFFFFFFFFFFFFFFFFFFFFFFFFFFFFFFFFFFFFFFFFFFFFFFFFFFFFFFB
:207E0000112484B714BE81FFF0D085E08093810082E08093C00088E18093C10086E08093FC
:207E2000C20080E18093C4008EE0C9D0259A86E020E33CEF91E0309385002093840096BBAD
:207E4000B09BFECF1D9AA8958150A9F7CC24DD2488248394B5E0AB2EA1E19A2EF3E0BF2E79
:207E6000A2D0813461F49FD0082FAFD0023811F0013811F484E001C083E08DD089C0823404
:207E800011F484E103C0853419F485E0A6D080C0853579F488D0E82EFF2485D0082F10E0A0
:207EA000102F00270E291F29000F111F8ED068016FC0863521F484E090D080E0DECF84364D
:207EC00009F040C070D06FD0082F6DD080E0C81680E7D80618F4F601B7BEE895C0E0D1E0ED
:207EE00062D089930C17E1F7F0E0CF16F0E7DF0618F0F601B7BEE89568D007B600FCFDCF1A
:207F0000A601A0E0B1E02C9130E011968C91119790E0982F8827822B932B1296FA010C016F
:207F200087BEE89511244E5F5F4FF1E0A038BF0751F7F601A7BEE89507B600FCFDCF97BE85
:207F4000E89526C08437B1F42ED02DD0F82E2BD03CD0F601EF2C8F010F5F1F4F84911BD0B8
:207F6000EA94F801C1F70894C11CD11CFA94CF0CD11C0EC0853739F428D08EE10CD085E9AE
:207F80000AD08FE07ACF813511F488E018D01DD080E101D065CF982F8091C00085FFFCCF0A
:207FA0009093C60008958091C00087FFFCCF8091C00084FD01C0A8958091C6000895E0E68F
:207FC000F0E098E1908380830895EDDF803219F088E0F5DFFFCF84E1DECF1F93182FE3DF47
:207FE0001150E9F7F2DF1F91089580E0E8DFEE27FF270994FFFFFFFFFFFFFFFFFFFF040425
:00000001FF
